require "rubygems"

namespace :squirrels do

  task :create_sammellastschrift => :environment do
    desc "generates xml for sammellalstschrift"


    banks = "100000001Bundesbank                                                10591Berlin                             BBk Berlin                 20100MARKDEF110009011380U000000000
100100101Postbank                                                  10916Berlin                             Postbank Berlin            10010PBNKDEFFXXX24000538U000000000
100101111SEB                                                       10789Berlin                             SEB Berlin                 25805ESSEDE5F10013005361U000000000
100104241Aareal Bank                                               10666Berlin                             Aareal Bank                26910AARBDE5W10009004795U000000000
100196101Dexia Kommunalbank Deutschland                            10969Berlin                             Dexia Berlin                    DXIADEBBXXX09055273U000000000
100202001BHF-BANK                                                  10117Berlin                             BHF-BANK Berlin            25155BHFBDEFF10060004794U000000000
100205001Bank für Sozialwirtschaft                                 10178Berlin                             Bank für Sozialwirtschaft  25013BFSWDE33BER09000530U000000000
100205101Bank für Sozialwirtschaft                                 10178Berlin                             Sozialbank Berlin               BFSWDE33B1009056659U000000000
100205201Bank für Sozialwirtschaft                                 10178Berlin                             Sozialbank Berlin               BFSWDE33B2009056662U000000000
100208901UniCredit Bank - HypoVereinsbank                          10896Berlin                             UniCredit Bank-HypoVereinbk22014HYVEDEMM48899039785U000000000
100208902UniCredit Bank - HypoVereinsbank                          14532Kleinmachnow                       UniCredit Bank-HypoVereinbk22014HYVEDEMM48899049352U000000000
100208902UniCredit Bank - HypoVereinsbank                          16515Oranienburg                        UniCredit Bank-HypoVereinbk22014HYVEDEMM48899049745U000000000
100208902UniCredit Bank - HypoVereinsbank                          14776Brandenburg an der Havel           UniCredit Bank-HypoVereinbk22014HYVEDEMM48899049746U000000000
100208902UniCredit Bank - HypoVereinsbank                          15711Königs Wusterhausen                UniCredit Bank-HypoVereinbk22014HYVEDEMM48899049747U000000000
100208902UniCredit Bank - HypoVereinsbank                          15517Fürstenwalde /Spree                UniCredit Bank-HypoVereinbk22014HYVEDEMM48899050515D000000000
100302001Berlin Hyp                                                10787Berlin                             Berlin Hyp                 26706BHYPDEB2XXX09037413U000000000
100304001ABK Allgemeine Beamten Bank                               10115Berlin                             ABK Bank Berlin            25686ABKBDEB1XXX09044427U000000000
100305001Bankhaus Löbbecke                                         10117Berlin                             Bankhaus Löbbecke Berlin   26225LOEBDEBBXXX09043961U000000000
100306001North Channel Bank                                        55118Mainz a Rhein                      North Channel Bank Mainz   26205GENODEF1OGK88000532U000000000
100307001Eurocity Bank                                             60311Frankfurt am Main                  Eurocity Bank              26535DLGHDEB1XXX16044339U000000000
100333001Santander Consumer Bank                                   10439Berlin                             Santander Bank Berlin      29411SCFBDE33XXX09055979U000000000
100400001Commerzbank, Filiale Berlin 1                             10891Berlin                             Commerzbank Fil. Berlin 1  24100COBADEBBXXX13024463U000000000
100400101Commerzbank, CC SP                                        10877Berlin                             Commerzbank CC SP, Berlin       COBADEFFXXX09056240U000000000
100400481Commerzbank GF-B48                                        10891Berlin                             Commerzbank BER GF-B48     24148COBADEFFXXX13055618U000000000
100400601Commerzbank Gf 160                                        10891Berlin                             Commerzbank Gf 160 Berlin  24101COBADEFFXXX09052880U000000000
100400611Commerzbank Gf 161                                        10891Berlin                             Commerzbank Gf 161 Berlin  24102COBADEFFXXX09052894U000000000
100400621Commerzbank CC                                            10783Berlin                             Commerzbank CC Berlin           COBADEFFXXX09055826U000000000
100400631Commerzbank CC                                            10783Berlin                             Commerzbank CC Berlin           COBADEFFXXX09055827U000000000
100400851Commerzbank, Gf Web-K                                     10877Berlin                             Commerzbank Gf WK, Berlin       COBADEFFXXX13056368U000000000
100450501Commerzbank Service-BZ                                    10785Berlin                             Commerzbank Service-BZ          COBADEFFXXX13050927U000000000
100500001Landesbank Berlin - Berliner Sparkasse                    10889Berlin                             LBB - Berliner Sparkasse   51000BELADEBEXXXB8002745U000000000
100500051Landesbank Berlin - E 1 -                                 10889Berlin                             Landesbank Berlin - E 1 -  51005BELADEB1DB5C6047222U000000000
100500061Landesbank Berlin - E 2 -                                 10889Berlin                             Landesbank Berlin - E 2 -  51006BELADEB1DB6D1047223U000000000
100500071Landesbank Berlin - E 3 -                                 10889Berlin                             Landesbank Berlin - E 3 -  51007BELADEB1DB7D4055701U000000000
100500081Landesbank Berlin - E 4 -                                 10889Berlin                             Landesbank Berlin - E 4 -  51008BELADEB1DB8E2055699U000000000
100500201LBB S-Kreditpartner, Berlin                               10715Berlin                             LBB S-Kreditpartner, Berlin     SKPADEB1XXXB8055974U000000000
100505001LBS Ost Berlin                                            10405Berlin                             LBS Ost Berlin                  LBSODEB1BLN09046141U000000000
100509991DekaBank Berlin                                           10249Berlin                             DekaBank Berlin                 DGZFDEFFBER09004788U000000000
100601981Pax-Bank                                                  14005Berlin                             Pax-Bank Berlin            61335GENODED1PA606047622U137060193
100602371Evangelische Darlehnsgenossenschaft -alt-                 10249Berlin                             EDG Berlin -alt-           61330GENODEF1EDG33046278U100000000
100610061Bank für Kirche und Diakonie - KD-Bank Gf Sonder-BLZ      10117Berlin                             KD-Bank Berlin                  GENODED1KDB09055270U000000000
100700001Deutsche Bank Fil Berlin                                  10883Berlin                             Deutsche Bank Fil Berlin   27060DEUTDEBBXXX63004787U000000000
100700002Deutsche Bank Fil Berlin Gf P2                            10883Berlin                             Deutsche Bank Fil Berlin   27703           63055917U000000000
100700002Deutsche Bank Fil Berlin Gf P2                            10883Berlin                             Deutsche Bank Fil Berlin   27700           63056400U000000000
100700241Deutsche Bank Privat und Geschäftskunden F 700            10883Berlin                             Deutsche Bank PGK Berlin   21060DEUTDEDBBER63049758U000000000
100700242Deutsche Bank Privat und Geschäftskunden F 700 Gf P2      10883Berlin                             Deutsche Bank PGK Berlin   21703           63055916U000000000
100700242Deutsche Bank Privat und Geschäftskunden F 700 Gf P2      10883Berlin                             Deutsche Bank PGK Berlin   21700           63056401U000000000
100701001Deutsche Bank Fil Berlin II                               10883Berlin                             Deutsche Bank Fil Berlin II27701DEUTDEBB10163053102U000000000
100701241Deutsche Bank Privat und Geschäftskd Berlin II            10883Berlin                             Deutsche Bank PGK Berlin II21701DEUTDEDB10163053103U000000000
100708481Berliner Bank Niederlassung der Deutsche Bank PGK         10623Berlin                             Berliner Bk Ndl Deutsche Bk21848DEUTDEDB11063055502U000000000
100777771norisbank                                                 10625Berlin                             norisbank Berlin           21431NORSDE51XXX63053532U000000000
100800001Commerzbank vormals Dresdner Bank Filiale Berlin I        10877Berlin                             Commerzbank Fil I Berlin   28100DRESDEFF10076024465U000000000
100800051Commerzbank vormals Dresdner Bank Zw A                    10623Berlin                             Commerzbank Berlin Zw A         DRESDEFFI2676046513U000000000
100800061Commerzbank vormals Dresdner Bank Zw B                    10623Berlin                             Commerzbank Berlin Zw B         DRESDEFFXXX76046514U000000000
100800551Commerzbank vormals Dresdner Bank Zw 55                   10623Berlin                             Commerzbank Zw 55 Berlin   28101DRESDEFF11276053527U000000000
100800571Commerzbank vormals Dresdner Bank Gf ZW 57                10877Berlin                             Commerzbk ZW 57 Berlin     28103DRESDEFF11476053520U000000000
100800851Commerzbank vormals Dresdner Bank Gf PCC DCC-ITGK 3       10877Berlin                             Commerzbank ITKG3 Berlin        DRESDEFFI5309054940U000000000
100800861Commerzbank vormals Dresdner Bank, PCC DCC-ITGK 4         10877Berlin                             Commerzbank ITGK4 Berlin        DRESDEFFI7109055157U000000000
100800871Commerzbank vormals Dresdner Bank, PCC DCC-ITGK 5         10877Berlin                             Commerzbank ITGK5 Berlin        DRESDEFFI7209055158U000000000
100800881Commerzbank vormals Dresdner Bank IBLZ                    10623Berlin                             Commerzbank IBLZ Berlin         DRESDEFFXXX76044595U000000000
100800891Commerzbank vormals Dresdner Bank, PCC DCC-ITGK 6         10877Berlin                             Commerzbank ITGK6 Berlin        DRESDEFFI7309055159U000000000
100809001Commerzbank vormals Dresdner Bank Filiale Berlin III      10877Berlin                             Commerzbk Fil III Berlin   28109DRESDEFF19976000534U000000000
100892601Commerzbank vormals Dresdner Bank ITGK                    10877Berlin                             Commerzbank ITGK Berlin         DRESDEFFI1409050474U000000000
100899991Commerzbank vormals Dresdner Bank ITGK 2                  10117Berlin                             Commerzbank ITGK 2 Berlin       DRESDEFFI9909052938U000000000
100900001Berliner Volksbank                                        10892Berlin                             Berliner VB Berlin         91001BEVODEBBXXX06023299U000000000
100900002Berliner Volksbank                                        15711Königs Wusterhausen                Berliner VB Königs Wusterhs91001           06044951U000000000
100900002Berliner Volksbank                                        14979Großbeeren                         Berliner VB Großbeeren     91001           06044952U000000000
100900002Berliner Volksbank                                        16816Neuruppin                          Berliner VB Neuruppin      91001           06044970U000000000
100900002Berliner Volksbank                                        16515Oranienburg                        Berliner VB Oranienburg    91001           06044974U000000000
100900002Volksbank Potsdam Zndl d Berliner Volksbank               14467Potsdam                            Volksbank Potsdam          91001           06044983U000000000
100900002Berliner Volksbank                                        15344Strausberg                         Berliner VB Strausberg     91001           06045010U000000000
100900002Berliner Volksbank                                        16792Zehdenick                          Berliner VB Zehdenick      91001           06045019U000000000
100900002Berliner Volksbank                                        14547Beelitz, Mark                      Berliner Volksbank Beelitz 91001           06045734U000000000
100900002Berliner Volksbank Fil Rheinsberg                         16831Rheinsberg                         Berliner VB Rheinsberg     91001           06046040U000000000
100900002Berliner Volksbank                                        14929Treuenbrietzen                     Berliner VB Treuenbrietzen 91001           06046045U000000000
100900002Berliner Volksbank                                        15757Halbe                              Berliner VB Halbe          91001           06046047U000000000
100900002Berliner Volksbank                                        16321Bernau bei Berlin                  Berliner VB Bernau         91001           06046058U000000000
100900002Berliner Volksbank                                        14641Nauen, Havelland                   Berliner VB Nauen          91001           06046770U000000000
100900002Berliner Volksbank                                        16766Kremmen                            Berliner VB Kremmen        91001           06047003U000000000
100900002Berliner Volksbank                                        16540Hohen Neuendorf                    Berliner VB Hohen Neuendorf91001           06047004U000000000
100900002Berliner Volksbank                                        14542Werder (Havel)                     Berliner VB Werder         91001           06047007U000000000
100900002Berliner Volksbank                                        16866Kyritz, Prignitz                   Berliner VB Kyritz         91001           06047009U000000000
100900002Berliner Volksbank                                        16909Wittstock /Dosse                   Berliner VB Wittstock      91001           06047010U000000000
100900002Berliner Volksbank                                        16775Gransee                            Berliner VB Gransee        91001           06047021U000000000
100900002Berliner Volksbank Fil Velten                             16727Velten                             Berliner VB Velten         91001           06047216U000000000
100900002Berliner Volksbank                                        14558Nuthetal                           Berliner Volksbank Saarmund91001           06047443U000000000
100900002Berliner Volksbank                                        15732Eichwalde                          Berliner Volksbank         91001           06048382U000000000
100900002Berliner Volksbank                                        15562Rüdersdorf b Berlin                Berliner Volksbank         91001           06048383U000000000
100900002Berliner Volksbank                                        16348Wandlitz                           Berliner Volksbank         91001           06048384U000000000
100900002Berliner Volksbank                                        16761Hennigsdorf                        Berliner VB Hennigsdorf    91001           06048909U000000000
100900002Berliner Volksbank                                        16775Löwenberger Land                   Berliner VB Löwenberg      91001           06049392U000000000
100900002Berliner Volksbank                                        16798Fürstenberg /Havel                 Berliner VB Fürstenberg    91001           06049394U000000000
100900002Berliner Volksbank                                        16247Joachimsthal                       Berliner VB Joachimsthal   91001           06049434U000000000
100900002Berliner Volksbank                                        16727Oberkrämer                         Berliner VB Oberkrämer     91001           06049698U000000000
100900002Berliner Volksbank (eh Grundkreditbank)                   14513Teltow                             Berliner VB Teltow         91001           06050571U000000000
100900002Berliner Volksbank                                        16225Eberswalde                         Berliner VB Eberswalde     91001           06051684U000000000
100900002Berliner Volksbank                                        15366Neuenhagen b Berlin                Berliner VB Neuenhagen     91001           06053326U000000000
100900002Berliner Volksbank                                        16548Glienicke /Nordbahn                Berliner VB Glienicke      91001           06053327U000000000
100900002Berliner Volksbank (Gf P2)                                10892Berlin                             Berliner VB Berlin         81001           06053669U000000000
100900002Berliner Volksbank                                        14612Falkensee                          Berliner VB Falkensee      91001           06056636U000000000
100903001Bank für Schiffahrt (BFS) Fil d Ostfr VB Leer             13353Berlin                             Bk f Schiffahrt BFS Berlin      GENODEF1BSB09021629U100000000
100906031apoBank                                                   10593Berlin                             apoBank Berlin             91006DAAEDED1003A4030360U000000000
100906032apoBank                                                   19061Schwerin, Meckl                    apoBank Schwerin           91006DAAEDED1042A4046110U000000000
100906032apoBank                                                   01099Dresden                            apoBank Dresden            91006DAAEDED1043A4046126U000000000
100906032apoBank                                                   04129Leipzig                            apoBank Leipzig            91006DAAEDED1041A4046410U000000000
100906032apoBank                                                   09111Chemnitz, Sachs                    apoBank Chemnitz           91006DAAEDED1049A4046553U000000000
100906032apoBank                                                   99084Erfurt                             apoBank Erfurt             91006DAAEDED1045A4046554U000000000
100906032apoBank                                                   39104Magdeburg                          apoBank Magdeburg          91006DAAEDED1046A4046555U000000000
100906032apoBank                                                   14467Potsdam                            apoBank Potsdam            91006DAAEDED1048A4046556U000000000
100906032apoBank                                                   18057Rostock                            apoBank Rostock            91006           A4046557U000000000
100909001PSD Bank Berlin-Brandenburg                               12154Berlin                             PSD Bank Berlin            91008GENODEF1P0191024464U000000000
101103001Privatbank Berlin von 1929                                10631Berlin                             Privatbank Berlin von 1929 26240MACODEB1XXX09000536U000000000
101104001Investitionsbank Berlin                                   10702Berlin                             Investitionsbank Berlin         IBBBDEBBXXX09000537U000000000
101106001quirin bank                                               10711Berlin                             quirin bank                25207QUBKDEBBXXX17049702U000000000
101201001Weberbank                                                 10893Berlin                             Weberbank                  51012WELADED1WBB94013621U000000000
101206001Santander Consumer Bank                                   60313Frankfurt am Main                  Santander Consumer Bank    25007SCFBDE33XXX09044605U000000000
101208001VON ESSEN Bankgesellschaft                                10719Berlin                             VON ESSEN Bank             26037VONEDE33BLN09044118U000000000
101306001Isbank Fil Berlin                                         13303Berlin                             Isbank Berlin              29835ISBKDEFXBER06043850U000000000
101308001BIW Bank                                                  47877Willich                            BIW Bank                   25185BIWBDE33XXX01050620U000000000
102205001Bank of Scotland Ndl Berlin                               10178Berlin                             Bank of Scotland Berlin         BOFSDEB1XXX00056412U000000000
102206001Sydbank Filiale Berlin                                    14193Berlin                             Sydbank Berlin                  SYBKDE22BER19056217U000000000
103106001Tradegate Wertpapierhandelsbank Berlin                    10711Berlin                             Tradegate Berlin           25257TRDADEB1PBK09055068U000000000
120168361KfW Kreditanstalt für Wiederaufbau                        10117Berlin                             KfW Berlin                      KFWIDEFF10009045444U000000000
120300001Deutsche Kreditbank Berlin                                10117Berlin                             Deutsche Kreditbank Berlin 51011BYLADEM100100046023U000000000
120300002Deutsche Kreditbank                                       09111Chemnitz, Sachs                    Deutsche Kreditbk Chemnitz 51011           00049243U000000000
120300002Deutsche Kreditbank                                       04109Leipzig                            Deutsche Kreditbank Leipzig51011           00049244U000000000
120300002Deutsche Kreditbank                                       01069Dresden                            Deutsche Kreditbank Dresden51011           00049245U000000000
120300002Deutsche Kreditbank                                       98527Suhl                               Deutsche Kreditbank Suhl   51011           00049246U000000000
120300002Deutsche Kreditbank                                       07545Gera                               Deutsche Kreditbank Gera   51011           00049247U000000000
120300002Deutsche Kreditbank                                       99084Erfurt                             Deutsche Kreditbank Erfurt 51011           00049248U000000000
120300002Deutsche Kreditbank                                       06122Halle (Saale)                      Deutsche Kreditbank Halle  51011           00049249U000000000
120300002Deutsche Kreditbank                                       39104Magdeburg                          Deutsche Kreditbk Magdeburg51011           00049250U000000000
120300002Deutsche Kreditbank                                       03046Cottbus                            Deutsche Kreditbank Cottbus51011           00049251U000000000
120300002Deutsche Kreditbank                                       15230Frankfurt (Oder)                   Deutsche Kreditbank Ff/Oder51011           00049252U000000000
120300002Deutsche Kreditbank                                       14471Potsdam                            Deutsche Kreditbank Potsdam51011           00049253U000000000
120300002Deutsche Kreditbank                                       17034Neubrandenburg, Meckl              Deutsche Kreditbk Neubrandb51011           00049254U000000000
120300002Deutsche Kreditbank                                       19053Schwerin, Meckl                    Deutsche Kreditbk Schwerin 51011           00049255U000000000
120300002Deutsche Kreditbank                                       18057Rostock                            Deutsche Kreditbank Rostock51011           00049256U000000000
120300002Deutsche Kreditbank (Gf P2)                               10117Berlin                             Deutsche Kreditbank (Gf P2)51100           00055781U000000000
120309001Merck Finck & Co                                          10109Berlin                             Merck Finck & Co Berlin    26249MEFIDEMM10010047484U000000000
120400001Commerzbank Filiale Berlin 2                              10891Berlin                             Commerzbank Fil. Berlin 2  24120COBADEBB12013044795U000000000
120505551NLB FinanzIT                                              10836Berlin                             NLB FinanzIT                    NOLADE21DVS09047224U000000000
120600001DZ BANK                                                   10001Berlin                             DZ BANK                         GENODEFF12009044802U000000000
120700001Deutsche Bank Ld Brandenburg                              14405Potsdam                            Deutsche Bank Ld Brandenbg 27704DEUTDEBB16063044796U000000000
120700002Deutsche Bank                                             16252Bad Freienwalde (Oder)             Deutsche Bank Bad Freienwde27704DEUTDEBB17263046146U000000000
120700002Deutsche Bank                                             16311Bernau bei Berlin                  Deutsche Bank Bernau       27704DEUTDEBB12263046147U000000000
120700002Deutsche Bank                                             14776Brandenburg an der Havel           Deutsche Bank Brandenburg  27704DEUTDEBB16163046148U000000000
120700002Deutsche Bank                                             03046Cottbus                            Deutsche Bank Cottbus      27704DEUTDEBB18063046149U000000000
120700002Deutsche Bank                                             16225Eberswalde                         Deutsche Bank Eberswalde   27704DEUTDEBB17363046150U000000000
120700002Deutsche Bank                                             15873Eisenhüttenstadt                   Deutsche Bank Eisenhüttenst27704DEUTDEBB17463046151U000000000
120700002Deutsche Bank                                             03232Finsterwalde                       Deutsche Bank Finsterwalde 27704DEUTDEBB18263046152U000000000
120700002Deutsche Bank                                             15203Frankfurt (Oder)                   Deutsche Bank Frankfurt Od 27704DEUTDEBB17063046153U000000000
120700002Deutsche Bank                                             15501Fürstenwalde /Spree                Deutsche Bank Fürstenwalde 27704DEUTDEBB17563046154U000000000
120700002Deutsche Bank                                             14902Jüterbog                           Deutsche Bank Jüterbog     27704DEUTDEBB18763046155U000000000
120700002Deutsche Bank                                             15701Königs Wusterhausen                Deutsche Bank Königs Wuster27704DEUTDEBB12163046156U000000000
120700002Deutsche Bank                                             16856Kyritz, Prignitz                   Deutsche Bank Kyritz       27704DEUTDEBB16363046157U000000000
120700002Deutsche Bank                                             16801Neuruppin                          Deutsche Bank Neuruppin    27704DEUTDEBB12363046158U000000000
120700002Deutsche Bank                                             16502Oranienburg                        Deutsche Bank Oranienburg  27704DEUTDEBB12063046159U000000000
120700002Deutsche Bank                                             10883Berlin                             Deutsche Bank Ld Brandenbg 27704           63046160U000000000
120700002Deutsche Bank                                             16921Pritzwalk                          Deutsche Bank Pritzwalk    27704DEUTDEBB16663046161U000000000
120700002Deutsche Bank                                             14712Rathenow                           Deutsche Bank Rathenow     27704DEUTDEBB16763046162U000000000
120700002Deutsche Bank                                             16285Schwedt /Oder                      Deutsche Bank Schwedt      27704DEUTDEBB17663046163U000000000
120700002Deutsche Bank                                             15301Seelow                             Deutsche Bank Seelow       27704DEUTDEBB17763046164U000000000
120700002Deutsche Bank                                             01968Senftenberg, NL                    Deutsche Bank Senftenberg  27704DEUTDEBB18563046165U000000000
120700002Deutsche Bank                                             03122Spremberg, NL                      Deutsche Bank Spremberg    27704DEUTDEBB18663046166U000000000
120700002Deutsche Bank                                             02931Weißwasser /O.L.                   Deutsche Bank Weißwasser   27704DEUTDEBB18963046167U000000000
120700002Deutsche Bank                                             03161Guben                              Deutsche Bank Guben        27704DEUTDEBB18363046168U000000000
120700002Deutsche Bank                                             16901Wittstock /Dosse                   Deutsche Bank Wittstock    27704DEUTDEBB16963046169U000000000
120700002Deutsche Bank                                             15801Zossen b Berlin                    Deutsche Bank Zossen       27704DEUTDEBB12463046170U000000000
120700002Deutsche Bank                                             16278Angermünde                         Deutsche Bank Angermünde   27704DEUTDEBB17163048454U000000000
120700002Deutsche Bank                                             14612Falkensee                          Deutsche Bank Falkensee    27704DEUTDEBB16263048455U000000000
120700002Deutsche Bank                                             03149Forst (Lausitz)                    Deutsche Bank Forst        27704DEUTDEBB18163048456U000000000
120700002Deutsche Bank                                             16761Hennigsdorf                        Deutsche Bank Hennigsdorf  27704DEUTDEBB12563048457U000000000
120700002Deutsche Bank                                             14943Luckenwalde                        Deutsche Bank Luckenwalde  27704DEUTDEBB18863048458U000000000
120700002Deutsche Bank                                             14974Ludwigsfelde                       Deutsche Bank Ludwigsfelde 27704DEUTDEBB16463048459U000000000
120700002Deutsche Bank                                             15907Lübben (Spreewald)                 Deutsche Bank Lübben       27704DEUTDEBB18463048460U000000000
120700002Deutsche Bank                                             01987Schwarzheide                       Deutsche Bank Schwarzheide 27704DEUTDEBB12663048461U000000000
120700002Deutsche Bank                                             15344Strausberg                         Deutsche Bank Strausberg   27704DEUTDEBB17863048462U000000000
120700002Deutsche Bank                                             14513Teltow                             Deutsche Bank Teltow       27704DEUTDEBB12763048463U000000000
120700002Deutsche Bank                                             14542Werder (Havel)                     Deutsche Bank Werder Havel 27704DEUTDEBB16863048464U000000000
120700002Deutsche Bank                                             14641Nauen, Havelland                   Deutsche Bank Nauen        27704DEUTDEBB16563048515U000000000
120700241Deutsche Bank Privat und Geschäftskunden                  14405Potsdam                            Deutsche Bank PGK Brandenbg21704DEUTDEDB16063049761U000000000
120700242Deutsche Bank Privat und Geschäftskunden                  16278Angermünde                         Deutsche Bank PGK Angermün 21704DEUTDEDB17163049759U000000000
120700242Deutsche Bank Privat und Geschäftskunden                  16252Bad Freienwalde (Oder)             Deutsche Bank PGK Bad Freie21704DEUTDEDB17263049760U000000000
120700242Deutsche Bank Privat und Geschäftskunden                  16311Bernau bei Berlin                  Deutsche Bank PGK Bernau   21704DEUTDEDB12263049762U000000000
120700242Deutsche Bank Privat und Geschäftskunden F 704            14776Brandenburg an der Havel           Deutsche Bank PGK Brandenbu21704DEUTDEDB16163049763U000000000
120700242Deutsche Bank Privat und Geschäftskunden                  03046Cottbus                            Deutsche Bank PGK Cottbus  21704DEUTDEDB18063049764U000000000
120700242Deutsche Bank Privat und Geschäftskunden                  16225Eberswalde                         Deutsche Bank PGK Eberswald21704DEUTDEDB17363049765U000000000
120700242Deutsche Bank Privat und Geschäftskunden                  15873Eisenhüttenstadt                   Deutsche Bank PGK Eisenhütt21704DEUTDEDB17463049766U000000000
120700242Deutsche Bank Privat und Geschäftskunden                  14612Falkensee                          Deutsche Bank PGK Falkensee21704DEUTDEDB16263049767U000000000
120700242Deutsche Bank Privat und Geschäftskunden                  03232Finsterwalde                       Deutsche Bank PGK Finsterwa21704DEUTDEDB18263049768U000000000
120700242Deutsche Bank Privat und Geschäftskunden                  03149Forst (Lausitz)                    Deutsche Bank PGK Forst    21704DEUTDEDB18163049769U000000000
120700242Deutsche Bank Privat und Geschäftskunden                  15203Frankfurt (Oder)                   Deutsche Bank PGK Frankfurt21704DEUTDEDB17063049770U000000000
120700242Deutsche Bank Privat und Geschäftskunden                  15501Fürstenwalde /Spree                Deutsche Bank PGK Fürstenw 21704DEUTDEDB17563049771U000000000
120700242Deutsche Bank Privat und Geschäftskunden                  03161Guben                              Deutsche Bank PGK Guben    21704DEUTDEDB18363049772U000000000
120700242Deutsche Bank Privat und Geschäftskunden                  16761Hennigsdorf                        Deutsche Bank PGK Hennigsdo21704DEUTDEDB12563049773U000000000
120700242Deutsche Bank Privat und Geschäftskunden                  14902Jüterbog                           Deutsche Bank PGK Jüterbog 21704DEUTDEDB18763049774U000000000
120700242Deutsche Bank Privat und Geschäftskunden                  15701Königs Wusterhausen                Deutsche Bank PGK Königs-Wu21704DEUTDEDB12163049775U000000000
120700242Deutsche Bank Privat und Geschäftskunden                  16856Kyritz, Prignitz                   Deutsche Bank PGK Kyritz   21704DEUTDEDB16363049776U000000000
120700242Deutsche Bank Privat und Geschäftskunden                  14943Luckenwalde                        Deutsche Bank PGK Luckenwal21704DEUTDEDB18863049777U000000000
120700242Deutsche Bank Privat und Geschäftskunden                  14974Ludwigsfelde                       Deutsche Bank PGK Ludwigsfe21704DEUTDEDB16463049778U000000000
120700242Deutsche Bank Privat und Geschäftskunden                  15907Lübben (Spreewald)                 Deutsche Bank PGK Lübben   21704DEUTDEDB18463049779U000000000
120700242Deutsche Bank Privat und Geschäftskunden                  14641Nauen, Havelland                   Deutsche Bank PGK Nauen    21704DEUTDEDB16563049780U000000000
120700242Deutsche Bank Privat und Geschäftskunden                  16801Neuruppin                          Deutsche Bank PGK Neuruppin21704DEUTDEDB12363049781U000000000
120700242Deutsche Bank Privat und Geschäftskunden                  16502Oranienburg                        Deutsche Bank PGK Oranienbg21704DEUTDEDB12063049782U000000000
120700242Deutsche Bank Privat und Geschäftskunden                  10883Berlin                             Deutsche Bank PGK Brandenbg21704           63049783U000000000
120700242Deutsche Bank Privat und Geschäftskunden                  16921Pritzwalk                          Deutsche Bank PGK Pritzwalk21704DEUTDEDB16663049784U000000000
120700242Deutsche Bank Privat und Geschäftskunden                  14712Rathenow                           Deutsche Bank PGK Rathenow 21704DEUTDEDB16763049785U000000000
120700242Deutsche Bank Privat und Geschäftskunden                  01987Schwarzheide                       Deutsche Bank PGK Schwarzhe21704DEUTDEDB12663049786U000000000
120700242Deutsche Bank Privat und Geschäftskunden                  16285Schwedt /Oder                      Deutsche Bank PGK Schwedt  21704DEUTDEDB17663049787U000000000
120700242Deutsche Bank Privat und Geschäftskunden                  15301Seelow                             Deutsche Bank PGK Seelow   21704DEUTDEDB17763049788U000000000
120700242Deutsche Bank Privat und Geschäftskunden                  01968Senftenberg, NL                    Deutsche Bank PGK Senftenbe21704DEUTDEDB18563049789U000000000
120700242Deutsche Bank Privat und Geschäftskunden                  03122Spremberg, NL                      Deutsche Bank PGK Spremberg21704DEUTDEDB18663049790U000000000
120700242Deutsche Bank Privat und Geschäftskunden                  15344Strausberg                         Deutsche Bank PGK Strausber21704DEUTDEDB17863049791U000000000
120700242Deutsche Bank Privat und Geschäftskunden                  14513Teltow                             Deutsche Bank PGK Teltow   21704DEUTDEDB12763049792U000000000
120700242Deutsche Bank Privat und Geschäftskunden                  02931Weißwasser /O.L.                   Deutsche Bank PGK Weißwass 21704DEUTDEDB18963049793U000000000
120700242Deutsche Bank Privat und Geschäftskunden                  14542Werder (Havel)                     Deutsche Bank PGK Werder   21704DEUTDEDB16863049794U000000000
120700242Deutsche Bank Privat und Geschäftskunden                  16901Wittstock /Dosse                   Deutsche Bank PGK Wittstock21704DEUTDEDB16963049795U000000000
120700242Deutsche Bank Privat und Geschäftskunden                  15801Zossen b Berlin                    Deutsche Bank PGK Zossen   21704DEUTDEDB12463049796U000000000
120700701Deutsche Bank (Gf intern)                                 14405Potsdam                            Deutsche Bank (Gf intern)       DEUTDEFFVAC09056253U000000000
120700881Deutsche Bank (Gf intern)                                 14405Potsdam                            Deutsche Bank (Gf intern)       DEUTDEDBPAL09056254U000000000
120800001Commerzbank vormals Dresdner Bank Filiale Berlin II       10623Berlin                             Commerzbank Fil II Berlin  28120DRESDEFF12076044797U000000000
120906401apoBank                                                   10625Berlin                             apoBank -ZV-Ost- Berlin    91050DAAEDED1040A4046143U000000000
120965971Sparda-Bank Berlin                                        10407Berlin                             Sparda-Bank Berlin         91055GENODEF1S10A8045032U000000000
120965972Sparda-Bank Berlin                                        03046Cottbus                            Sparda-Bank Berlin         91055           A8045025U000000000
120965972Sparda-Bank Berlin                                        01099Dresden                            Sparda-Bank Berlin         91055           A8045026U000000000
120965972Sparda-Bank Berlin                                        99084Erfurt                             Sparda-Bank Berlin         91055           A8045027U000000000
120965972Sparda-Bank Berlin                                        17489Greifswald, Hansestadt             Sparda-Bank Berlin         91055           A8045028U000000000
120965972Sparda-Bank Berlin                                        06112Halle (Saale)                      Sparda-Bank Berlin         91055           A8045029U000000000
120965972Sparda-Bank Berlin                                        39104Magdeburg                          Sparda-Bank Berlin         91055           A8045030U000000000
120965972Sparda-Bank Berlin                                        19053Schwerin, Meckl                    Sparda-Bank Berlin         91055           A8045031U000000000
120965972Sparda-Bank Berlin                                        04001Leipzig                            Sparda-Bank Berlin         91055           A8048390U000000000
120965972Sparda-Bank Berlin                                        06449Aschersleben, Sachs-Anh            Sparda-Bank Berlin         91055           A8049483U000000000
120965972Sparda-Bank Berlin                                        02625Bautzen, Sachs                     Sparda-Bank Berlin         91055           A8049484U000000000
120965972Sparda-Bank Berlin                                        18528Bergen auf Rügen                   Sparda-Bank Berlin         91055           A8049485U000000000
120965972Sparda-Bank Berlin                                        06406Bernburg (Saale)                   Sparda-Bank Berlin         91055           A8049486U000000000
120965972Sparda-Bank Berlin                                        14774Brandenburg an der Havel           Sparda-Bank Berlin         91055           A8049487U000000000
120965972Sparda-Bank Berlin                                        09111Chemnitz, Sachs                    Sparda-Bank Berlin         91055           A8049488U000000000
120965972Sparda-Bank Berlin                                        04509Delitzsch                          Sparda-Bank Berlin         91055           A8049489U000000000
120965972Sparda-Bank Berlin                                        06849Dessau-Roßlau                      Sparda-Bank Berlin         91055           A8049490U000000000
120965972Sparda-Bank Berlin                                        99817Eisenach, Thür                     Sparda-Bank Berlin         91055           A8049491U000000000
120965972Sparda-Bank Berlin                                        04895Falkenberg, Elster                 Sparda-Bank Berlin         91055           A8049492U000000000
120965972Sparda-Bank Berlin                                        15230Frankfurt (Oder)                   Sparda-Bank Berlin         91055           A8049493U000000000
120965972Sparda-Bank Berlin                                        07545Gera                               Sparda-Bank Berlin         91055           A8049494U000000000
120965972Sparda-Bank Berlin                                        02826Görlitz, Neiße                     Sparda-Bank Berlin         91055           A8049495U000000000
120965972Sparda-Bank Berlin                                        99867Gotha, Thür                        Sparda-Bank Berlin         91055           A8049496U000000000
120965972Sparda-Bank Berlin                                        18273Güstrow                            Sparda-Bank Berlin         91055           A8049497U000000000
120965972Sparda-Bank Berlin                                        38820Halberstadt                        Sparda-Bank Berlin         91055           A8049498U000000000
120965972Sparda-Bank Berlin                                        06886Lutherstadt Wittenberg             Sparda-Bank Berlin         91055           A8049499U000000000
120965972Sparda-Bank Berlin                                        98617Meiningen                          Sparda-Bank Berlin         91055           A8049500U000000000
120965972Sparda-Bank Berlin                                        99724Nordhausen, Thür                   Sparda-Bank Berlin         91055           A8049501U000000000
120965972Sparda-Bank Berlin                                        01796Pirna                              Sparda-Bank Berlin         91055           A8049502U000000000
120965972Sparda-Bank Berlin                                        14473Potsdam                            Sparda-Bank Berlin         91055           A8049503U000000000
120965972Sparda-Bank Berlin                                        01587Riesa                              Sparda-Bank Berlin         91055           A8049504U000000000
120965972Sparda-Bank Berlin                                        18055Rostock                            Sparda-Bank Berlin         91055           A8049505U000000000
120965972Sparda-Bank Berlin                                        07318Saalfeld /Saale                    Sparda-Bank Berlin         91055           A8049506U000000000
120965972Sparda-Bank Berlin                                        39576Stendal                            Sparda-Bank Berlin         91055           A8049507U000000000
120965972Sparda-Bank Berlin                                        18437Stralsund                          Sparda-Bank Berlin         91055           A8049508U000000000
120965972Sparda-Bank Berlin                                        99423Weimar, Thür                       Sparda-Bank Berlin         91055           A8049509U000000000
120965972Sparda-Bank Berlin                                        06667Weißenfels, Saale                  Sparda-Bank Berlin         91055           A8049510U000000000
120965972Sparda-Bank Berlin                                        19322Wittenberge, Prignitz              Sparda-Bank Berlin         91055           A8049511U000000000
120965972Sparda-Bank Berlin                                        08056Zwickau                            Sparda-Bank Berlin         91055           A8049512U000000000
120965972Sparda-Bank Berlin                                        23966Wismar, Meckl                      Sparda-Bank Berlin         91055           A8050525U000000000
120965972Sparda-Bank Berlin                                        17033Neubrandenburg, Meckl              Sparda-Bank Berlin         91055           A8050526U000000000
130000001Bundesbank                                                18004Rostock                            BBk Rostock                20130MARKDEF113009044864U000000000
130101111SEB                                                       18055Rostock                            SEB Rostock                25921ESSEDE5F13013044886U000000000
130101112SEB                                                       19055Schwerin, Meckl                    SEB Schwerin               25921ESSEDE5F13113046595U000000000
130101112SEB                                                       23966Wismar, Meckl                      SEB Wismar                 25921ESSEDE5F13213047497U000000000
130400001Commerzbank                                               18006Rostock                            Commerzbank Rostock        24130COBADEFFXXX13044861U000000000
130400002Commerzbank                                               23951Wismar, Meckl                      Commerzbank Wismar         24130           13046018U000000000
130400002Commerzbank                                               18184Roggentin b Rostock                Commerzbank Roggentin      24130           13049525U000000000
130500001Ostseesparkasse Rostock                                   18004Rostock                            Ostseesparkasse Rostock    51399NOLADE21ROS20048659U000000000
130500002Ostseesparkasse Rostock                                   18242Bützow                             Ostseesparkasse Rostock    51399           20045254U000000000
130500002Ostseesparkasse Rostock                                   18262Güstrow                            Ostseesparkasse Rostock    51399           20045255U000000000
130500002Ostseesparkasse Rostock                                   17161Teterow                            Ostseesparkasse Rostock    51399           20045264U000000000
130500002Ostseesparkasse Rostock                                   18201Bad Doberan                        Ostseesparkasse Rostock    51399           20045789U000000000
130510421Sparkasse Vorpommern auf Rügen                            18525Bergen auf Rügen                   Spk Vorpommern auf Rügen   51303NOLADE21RUEC0045242U000000000
130610081Volksbank Wolgast                                         17438Wolgast                            Volksbank Wolgast          61260GENODEF1WOG32045675U000000000
130610082Volksbank Wolgast (Gf P2)                                 17438Wolgast                            Volksbank Wolgast          71260           32053670U000000000
130610281Volksbank Raiffeisenbank ehem VB Greifswald               17462Greifswald, Hansestadt             Volksbank Raiffeisenbank   61279GENODEF1GW132045676U100000000
130610781Volks- und Raiffeisenbank                                 23952Wismar, Meckl                      VB u Raiffbk               61286GENODEF1HWI32045680U000000000
130610782Volks- und Raiffeisenbank                                 18225Kühlungsborn, Ostseebad            VB u Raiffbk               61286           32045017U000000000
130610782Volks- und Raiffeisenbank                                 23923Schönberg, Meckl                   VB u Raiffbk               61286           32046578U000000000
130610782Volks- und Raiffeisenbank                                 23948Klütz                              VB u Raiffbk               61286           32046632U000000000
130610782Volks- und Raiffeisenbank                                 18233Neubukow                           VB u Raiffbk               61286           32046636U000000000
130610782Volks- und Raiffeisenbank                                 23932Grevesmühlen                       VB u Raiffbk               61286           32049751U000000000
130610782Volks- und Raiffeisenbank                                 23996Bobitz                             VB u Raiffbk               61286           32050955U000000000
130610782Volks- und Raiffeisenbank                                 23974Neuburg, NWM                       VB u Raiffbk               61286           32050956U000000000
130610782Volks- und Raiffeisenbank                                 23992Neukloster, Meckl                  VB u Raiffbk               61286           32050957U000000000
130610782Volks- und Raiffeisenbank                                 23999Insel Poel                         VB u Raiffbk               61286           32051126U000000000
130610782Volks- und Raiffeisenbank                                 19205Gadebusch                          VB u Raiffbk               61286           32052785U000000000
130610782Volks- und Raiffeisenbank                                 19209Lützow                             VB u Raiffbk               61286           32053064U000000000
130610782Volks- und Raiffeisenbank                                 19217Rehna                              VB u Raiffbk               61286           32053065U000000000
130610782Volks- und Raiffeisenbank (Gf P2)                         23952Wismar, Meckl                      VB u Raiffbk               71286           32053671U000000000
130610881Raiffeisenbank Wismar -alt-                               23952Wismar, Meckl                      VB u Raiffbk -alt-         61315GENODEF1HWR32045681U113061078
130611281Raiffeisenbank                                            18209Bad Doberan                        Raiffeisenbank Bad Doberan 61288GENODEF1DBR32045683U114061308
130611282Raiffeisenbank (Gf P2)                                    18202Bad Doberan                        Raiffeisenbank Bad Doberan 71288           32053672U000000000
130700001Deutsche Bank                                             18002Rostock                            Deutsche Bank Rostock      27707DEUTDEBRXXX63044862U000000000
130700002Deutsche Bank                                             17381Anklam                             Deutsche Bank Anklam       27707DEUTDEBB15163046171U000000000
130700002Deutsche Bank                                             18201Bad Doberan                        Deutsche Bank Bad Doberan  27707DEUTDEBR13163046172U000000000
130700002Deutsche Bank                                             18521Bergen auf Rügen                   Deutsche Bank Bergen Rügen 27707DEUTDEBR13363046173U000000000
130700002Deutsche Bank                                             18241Bützow                             Deutsche Bank Bützow       27707DEUTDEBB13063046174U000000000
130700002Deutsche Bank                                             17101Demmin, Hansestadt                 Deutsche Bank Demmin       27707DEUTDEBB13163046175U000000000
130700002Deutsche Bank                                             17462Greifswald, Hansestadt             Deutsche Bank Greifswald   27707DEUTDEBR13463046176U000000000
130700002Deutsche Bank                                             23932Grevesmühlen                       Deutsche Bank Grevesmühlen 27707           63046177U000000000
130700002Deutsche Bank                                             18502Grimmen                            Deutsche Bank Grimmen      27707DEUTDEBR13563046178U000000000
130700002Deutsche Bank                                             18262Güstrow                            Deutsche Bank Güstrow      27707DEUTDEBB14163046179U000000000
130700002Deutsche Bank                                             19221Hagenow                            Deutsche Bank Hagenow      27707DEUTDEBB14263046180U000000000
130700002Deutsche Bank                                             19281Ludwigslust, Meckl                 Deutsche Bank Ludwigslust  27707DEUTDEBB14363046181U000000000
130700002Deutsche Bank                                             19381Lübz                               Deutsche Bank Lübz         27707DEUTDEBB14463046182U000000000
130700002Deutsche Bank                                             17132Malchin                            Deutsche Bank Malchin      27707DEUTDEBB15263046183U000000000
130700002Deutsche Bank                                             17036Neubrandenburg, Meckl              Deutsche Bank Neubrandenbg 27707DEUTDEBB15063046184U000000000
130700002Deutsche Bank                                             17225Neustrelitz                        Deutsche Bank Neustrelitz  27707DEUTDEBB15363046185U000000000
130700002Deutsche Bank                                             17281Prenzlau                           Deutsche Bank Prenzlau     27707DEUTDEBB15463046186U000000000
130700002Deutsche Bank                                             18311Ribnitz-Damgarten                  Deutsche Bank Ribnitz-Damgt27707DEUTDEBR13663046187U000000000
130700002Deutsche Bank                                             19002Schwerin, Meckl                    Deutsche Bank Schwerin     27707DEUTDEBB14063046189U000000000
130700002Deutsche Bank                                             18401Stralsund                          Deutsche Bank Stralsund    27707DEUTDEBR13863046190U000000000
130700002Deutsche Bank                                             17261Templin                            Deutsche Bank Templin      27707DEUTDEBB15563046191U000000000
130700002Deutsche Bank                                             17161Teterow                            Deutsche Bank Teterow      27707DEUTDEBB15663046192U000000000
130700002Deutsche Bank                                             17351Torgelow, Vorpommern               Deutsche Bank Torgelow     27707DEUTDEBB17963046193U000000000
130700002Deutsche Bank                                             23951Wismar, Meckl                      Deutsche Bank Wismar       27707DEUTDEBB14863046194U000000000
130700002Deutsche Bank                                             19313Wittenberge, Prignitz              Deutsche Bank Wittenberge  27707DEUTDEBB14963046195U000000000
130700002Deutsche Bank                                             17438Wolgast                            Deutsche Bank Wolgast      27707DEUTDEBB15963046196U000000000
130700002Deutsche Bank                                             19205Gadebusch                          Deutsche Bank Gadebusch    27707DEUTDEBB13263048441U000000000
130700002Deutsche Bank                                             19370Parchim                            Deutsche Bank Parchim      27707DEUTDEBB14563048442U000000000
130700002Deutsche Bank                                             19348Perleberg                          Deutsche Bank Perleberg    27707DEUTDEBB14663048443U000000000
130700002Deutsche Bank                                             19395Plau                               Deutsche Bank Plau         27707DEUTDEBB14763048444U000000000
130700002Deutsche Bank                                             17153Stavenhagen, Reuterstadt           Deutsche Bk Reuterst Stvnhg27707           63048445U000000000
130700002Deutsche Bank                                             18546Sassnitz                           Deutsche Bank Sassnitz     27707DEUTDEBR13763048446U000000000
130700002Deutsche Bank                                             17192Waren (Müritz)                     Deutsche Bank Waren        27707DEUTDEBB15863048447U000000000
130700002Deutsche Bank                                             17373Ueckermünde                        Deutsche Bank Ueckermünde  27707DEUTDEBB15763048516U000000000
130700002Deutsche Bank                                             18356Barth                              Deutsche Bank Barth        27707DEUTDEBR13263048517U000000000
130700241Deutsche Bank Privat und Geschäftskunden                  18002Rostock                            Deutsche Bank PGK Rostock  21707DEUTDEDBROS63049820U000000000
130700242Deutsche Bank Privat und Geschäftskunden                  17381Anklam                             Deutsche Bank PGK Anklam   21707DEUTDEDB15163049797U000000000
130700242Deutsche Bank Privat und Geschäftskunden                  18201Bad Doberan                        Deutsche Bank PGK Bad Dober21707DEUTDEDB13163049798U000000000
130700242Deutsche Bank Privat und Geschäftskunden                  18356Barth                              Deutsche Bank PGK Barth    21707           63049799U000000000
130700242Deutsche Bank Privat und Geschäftskunden                  18521Bergen auf Rügen                   Deutsche Bank PGK Bergen Rü21707DEUTDEDB13363049800U000000000
130700242Deutsche Bank Privat und Geschäftskunden                  18241Bützow                             Deutsche Bank PGK Bützow   21707DEUTDEDB13063049801U000000000
130700242Deutsche Bank Privat und Geschäftskunden                  17101Demmin, Hansestadt                 Deutsche Bank PGK Demmin   21707DEUTDEDB12863049802U000000000
130700242Deutsche Bank Privat und Geschäftskunden                  19205Gadebusch                          Deutsche Bank PGK Gadebusch21707DEUTDEDB13263049803U000000000
130700242Deutsche Bank Privat und Geschäftskunden                  17462Greifswald, Hansestadt             Deutsche Bank PGK Greifswal21707DEUTDEDB13463049804U000000000
130700242Deutsche Bank Privat und Geschäftskunden                  23932Grevesmühlen                       Deutsche Bank PGK Grevesmüh21707           63049805U000000000
130700242Deutsche Bank Privat und Geschäftskunden                  18502Grimmen                            Deutsche Bank PGK Grimmen  21707DEUTDEDB13563049806U000000000
130700242Deutsche Bank Privat und Geschäftskunden                  18262Güstrow                            Deutsche Bank PGK Güstrow  21707DEUTDEDB14163049807U000000000
130700242Deutsche Bank Privat und Geschäftskunden                  19221Hagenow                            Deutsche Bank PGK Hagenow  21707DEUTDEDB14263049808U000000000
130700242Deutsche Bank Privat und Geschäftskunden                  19281Ludwigslust, Meckl                 Deutsche Bank PGK Ludwigslu21707DEUTDEDB14363049809U000000000
130700242Deutsche Bank Privat und Geschäftskunden                  19381Lübz                               Deutsche Bank PGK Lübz     21707DEUTDEDB14463049810U000000000
130700242Deutsche Bank Privat und Geschäftskunden                  17132Malchin                            Deutsche Bank PGK Malchin  21707DEUTDEDB15263049811U000000000
130700242Deutsche Bank Privat und Geschäftskunden                  17033Neubrandenburg, Meckl              Deutsche Bank PGK Neubrande21707DEUTDEDB15063049812U000000000
130700242Deutsche Bank Privat und Geschäftskunden                  17225Neustrelitz                        Deutsche Bank PGK Neustreli21707DEUTDEDB15363049813U000000000
130700242Deutsche Bank Privat und Geschäftskunden                  19370Parchim                            Deutsche Bank PGK Parchim  21707DEUTDEDB14563049814U000000000
130700242Deutsche Bank Privat und Geschäftskunden                  19348Perleberg                          Deutsche Bank PGK Perleberg21707DEUTDEDB14663049815U000000000
130700242Deutsche Bank Privat und Geschäftskunden                  19395Plau                               Deutsche Bank PGK Plau     21707DEUTDEDB14763049816U000000000
130700242Deutsche Bank Privat und Geschäftskunden                  17281Prenzlau                           Deutsche Bank PGK Prenzlau 21707DEUTDEDB15463049817U000000000
130700242Deutsche Bank Privat und Geschäftskunden                  17153Stavenhagen, Reuterstadt           Deutsche Bank PGK Reutersta21707           63049818U000000000
130700242Deutsche Bank Privat und Geschäftskunden                  18311Ribnitz-Damgarten                  Deutsche Bank PGK Ribnitz-D21707DEUTDEDB13663049819U000000000
130700242Deutsche Bank Privat und Geschäftskunden                  18546Sassnitz                           Deutsche Bank PGK Sassnitz 21707DEUTDEDB13763049821U000000000
130700242Deutsche Bank Privat und Geschäftskunden                  19002Schwerin, Meckl                    Deutsche Bank PGK Schwerin 21707DEUTDEDB14063049822U000000000
130700242Deutsche Bank Privat und Geschäftskunden                  18401Stralsund                          Deutsche Bank PGK Stralsund21707DEUTDEDB13863049823U000000000
130700242Deutsche Bank Privat und Geschäftskunden                  17261Templin                            Deutsche Bank PGK Templin  21707DEUTDEDB15563049824U000000000
130700242Deutsche Bank Privat und Geschäftskunden                  17161Teterow                            Deutsche Bank PGK Teterow  21707DEUTDEDB15663049825U000000000
130700242Deutsche Bank Privat und Geschäftskunden                  17351Torgelow, Vorpommern               Deutsche Bank PGK Torgelow 21707DEUTDEDB17963049826U000000000
130700242Deutsche Bank Privat und Geschäftskunden                  17373Ueckermünde                        Deutsche Bank PGK Ueckermün21707DEUTDEDB15763049827U000000000
130700242Deutsche Bank Privat und Geschäftskunden                  17192Waren (Müritz)                     Deutsche Bank PGK Waren    21707DEUTDEDB15863049828U000000000
130700242Deutsche Bank Privat und Geschäftskunden                  23951Wismar, Meckl                      Deutsche Bank PGK Wismar   21707DEUTDEDB14863049829U000000000
130700242Deutsche Bank Privat und Geschäftskunden                  19313Wittenberge, Prignitz              Deutsche Bank PGK Wittenber21707DEUTDEDB14963049830U000000000
130700242Deutsche Bank Privat und Geschäftskunden                  17438Wolgast                            Deutsche Bank PGK Wolgast  21707DEUTDEDB15963049831U000000000
130800001Commerzbank vormals Dresdner Bank                         18010Rostock                            Commerzbank Rostock        28130DRESDEFF13076044863U000000000
130900001Rostocker Volks- und Raiffeisenbank                       18003Rostock                            Rostocker VR Bank          91063GENODEF1HR132050596U000000000
130900002Rostocker Volks- und Raiffeisenbank (Gf P2)               18003Rostock                            Rostocker VR Bank          81063           32053673U000000000
130910541Pommersche Volksbank                                      18439Stralsund                          Pommersche Volksbank       91054GENODEF1HST32045009U000000000
130910542Pommersche Volksbank (Gf P2)                              18401Stralsund                          Pommersche Volksbank       81054           32053674U000000000
130910841Volksbank Wismar -alt-                                    23952Wismar, Meckl                      VB u Raiffbk -alt-              GENODEF1HWV06045015U113061078
140400001Commerzbank                                               19055Schwerin, Meckl                    Commerzbank Schwerin       24140COBADEFFXXX13046008U000000000
140400002Commerzbank                                               19361Parchim                            Commerzbank Parchim        24140           13056036U000000000
140510001Sparkasse Mecklenburg-Nordwest                            23951Wismar, Meckl                      Spk Mecklenburg-Nordwest   51499NOLADE21WIS20048818U000000000
140510002Sparkasse Mecklenburg-Nordwest                            19217Rehna                              Spk Mecklenburg-Nordwest   51499           20048244U000000000
140510002Sparkasse Mecklenburg-Nordwest                            23996Bad Kleinen                        Spk Mecklenburg-Nordwest   51499           20048824U000000000
140510002Sparkasse Mecklenburg-Nordwest                            23946Ostseebad Boltenhagen              Spk Mecklenburg-Nordwest   51499           20048825U000000000
140510002Sparkasse Mecklenburg-Nordwest                            23942Dassow                             Spk Mecklenburg-Nordwest   51499           20048826U000000000
140510002Sparkasse Mecklenburg-Nordwest                            23972Dorf Mecklenburg                   Spk Mecklenburg-Nordwest   51499           20048827U000000000
140510002Sparkasse Mecklenburg-Nordwest                            19205Gadebusch                          Spk Mecklenburg-Nordwest   51499           20048828U000000000
140510002Sparkasse Mecklenburg-Nordwest                            23936Grevesmühlen                       Spk Mecklenburg-Nordwest   51499           20048829U000000000
140510002Sparkasse Mecklenburg-Nordwest                            19417Warin                              Spk Mecklenburg-Nordwest   51499           20048830U000000000
140510002Sparkasse Mecklenburg-Nordwest                            23923Herrnburg                          Spk Mecklenburg-Nordwest   51499           20048831U000000000
140510002Sparkasse Mecklenburg-Nordwest                            23948Klütz                              Spk Mecklenburg-Nordwest   51499           20048833U000000000
140510002Sparkasse Mecklenburg-Nordwest                            19209Lützow                             Spk Mecklenburg-Nordwest   51499           20048834U000000000
140510002Sparkasse Mecklenburg-Nordwest                            23992Neukloster, Meckl                  Spk Mecklenburg-Nordwest   51499           20048835U000000000
140510002Sparkasse Mecklenburg-Nordwest                            23923Schönberg, Meckl                   Spk Mecklenburg-Nordwest   51499           20048836U000000000
140510002Sparkasse Mecklenburg-Nordwest                            23923Selmsdorf                          Spk Mecklenburg-Nordwest   51499           20048837U000000000
140513621Sparkasse Parchim-Lübz                                    19362Parchim                            Sparkasse Parchim-Lübz     51404NOLADE21PCH20045251U000000000
140513622Sparkasse Parchim-Lübz                                    19386Lübz                               Sparkasse Parchim-Lübz     51404           20045252U000000000
140514621Sparkasse Schwerin -alt-                                  19053Schwerin, Meckl                    Sparkasse Schwerin -alt-   51409NOLADE21SNSC0045246U000000000
140520001Sparkasse Mecklenburg-Schwerin                            19053Schwerin, Meckl                    Spk Mecklenburg-Schwerin   51498NOLADE21LWL20048910U000000000
140520002Sparkasse Mecklenburg-Schwerin                            19251Boizenburg                         Spk Mecklenburg-Schwerin   51498           20048252U000000000
140520002Sparkasse Mecklenburg-Schwerin                            19249Lübtheen                           Spk Mecklenburg-Schwerin   51498           20048253U000000000
140520002Sparkasse Mecklenburg-Schwerin                            19260Vellahn                            Spk Mecklenburg-Schwerin   51498           20048256U000000000
140520002Sparkasse Mecklenburg-Schwerin                            19241Wittenburg, Meckl                  Spk Mecklenburg-Schwerin   51498           20048257U000000000
140520002Sparkasse Mecklenburg-Schwerin                            19246Zarrentin, Meckl                   Spk Mecklenburg-Schwerin   51498           20048258U000000000
140520002Sparkasse Mecklenburg-Schwerin                            19303Dömitz                             Spk Mecklenburg-Schwerin   51498           20048310U000000000
140520002Sparkasse Mecklenburg-Schwerin                            19300Grabow, Meckl                      Spk Mecklenburg-Schwerin   51498           20048311U000000000
140520002Sparkasse Mecklenburg-Schwerin                            19294Neu Kaliß                          Spk Mecklenburg-Schwerin   51498           20048312U000000000
140520002Sparkasse Mecklenburg-Schwerin                            19304Neustadt-Glewe                     Spk Mecklenburg-Schwerin   51498           20048313U000000000
140520002Sparkasse Mecklenburg-Schwerin                            19294Malliß                             Spk Mecklenburg-Schwerin   51498           20048314U000000000
140520002Sparkasse Mecklenburg-Schwerin                            19294Eldena a d Elde                    Spk Mecklenburg-Schwerin   51498           20048315U000000000
140520002Sparkasse Mecklenburg-Schwerin                            19282Ludwigslust, Meckl                 Spk Mecklenburg-Schwerin   51498           20048911U000000000
140520002Sparkasse Mecklenburg-Schwerin                            19288Wöbbelin                           Spk Mecklenburg-Schwerin   51498           20049733U000000000
140520002Sparkasse Mecklenburg-Schwerin                            19075Pampow b Schwerin, Meckl           Spk Mecklenburg-Schwerin   51498           20049734U000000000
140520002Sparkasse Mecklenburg-Schwerin                            19221Hagenow                            Spk Mecklenburg-Schwerin   51498           20053387U000000000
140613081Volks- und Raiffeisenbank                                 18273Güstrow                            VB u Raiffbk Güstrow       61289GENODEF1GUE32045694U000000000
140613082Volks- und Raiffeisenbank                                 19386Lübz                               VB u Raiffbk Lübz          61289           32045697U000000000
140613082Volks- und Raiffeisenbank                                 18246Bützow                             VB u Raiffbk Bützow        61289           32050625U000000000
140613082Volks- und Raiffeisenbank                                 19399Dobbertin                          VB u Raiffbk Dobbertin     61289           32050626U000000000
140613082Volks- und Raiffeisenbank                                 19399Goldberg, Meckl                    VB u Raiffbk Goldberg      61289           32050628U000000000
140613082Volks- und Raiffeisenbank                                 18292Krakow am See                      VB u Raiffbk Krakow am See 61289           32050629U000000000
140613082Volks- und Raiffeisenbank                                 18299Laage                              VB u Raiffbk Laage         61289           32050630U000000000
140613082Volks- und Raiffeisenbank                                 18279Lalendorf                          VB u Raiffbk Lalendorf     61289           32050631U000000000
140613082Volks- und Raiffeisenbank                                 18258Schwaan                            VB u Raiffbk Schwaan       61289           32050632U000000000
140613082Volks- und Raiffeisenbank                                 19395Plau                               VB u Raiffbk Plau          61289           32050633U000000000
140613082Volks- und Raiffeisenbank                                 19412Brüel                              VB u Raiffbk Brüel         61289           32051325U000000000
140613082Volks- und Raiffeisenbank                                 19406Dabel                              VB u Raiffbk Dabel         61289           32051326U000000000
140613082Volks- und Raiffeisenbank                                 19406Sternberg, Meckl                   VB u Raiffbk Sternberg     61289           32051327U000000000
140613082Volks- und Raiffeisenbank                                 19417Warin                              VB u Raiffbk Warin         61289           32051328U000000000
140613082Volks- und Raiffeisenbank (Gf P2)                         18273Güstrow                            VB u Raiffbk Güstrow       71289           32053675U000000000
140614381Raiffeisen-Volksbank -alt-                                19205Gadebusch                          Raiffeisen-VB Gadebusch-alt61311GENODEF1GDB32045702U000000000
140800001Commerzbank vormals Dresdner Bank                         19006Schwerin, Meckl                    Commerzbank Schwerin       28140DRESDEFF14076044866U000000000
140800002Commerzbank vormals Dresdner Bank                         23966Wismar, Meckl                      Commerzbank Wismar         28140           76044873U000000000
140800002Commerzbank vormals Dresdner Bank                         19361Parchim                            Commerzbank Parchim        28140           76046293U000000000
140800111Commerzbank vormals Dresdner Bank Zw W                    19006Schwerin, Meckl                    Commerzbank Schwerin Zw W       DRESDEFFI2776046780U000000000
140914641VR-Bank                                                   19053Schwerin, Meckl                    VR-Bank Schwerin           91044GENODEF1SN132044999U000000000
140914642VR-Bank                                                   19281Ludwigslust, Meckl                 VR-Bank Schwerin           91044           32046031U000000000
140914642VR-Bank Schwerin                                          19370Parchim                            VR-Bank Schwerin           91044           32046280U000000000
140914642VR-Bank (Gf P2)                                           19053Schwerin, Meckl                    VR-Bank Schwerin           81044           32053676U000000000
150000001Bundesbank                                                17020Neubrandenburg, Meckl              BBk Neubrandenburg         20150MARKDEF115009044851U000000000
150400681Commerzbank                                               17019Neubrandenburg, Meckl              Commerzbank Neubrandenburg 24151COBADEFFXXX13045999U000000000
150400682Commerzbank                                               17461Greifswald, Hansestadt             Commerzbank Greifswald     24151           13045989U000000000
150400682Commerzbank                                               18401Stralsund                          Commerzbank Stralsund      24151           13046011U000000000
150400682Commerzbank                                               18528Bergen auf Rügen                   Commerzbank Bergen Rügen   24151           13047233U000000000
150400682Commerzbank                                               17181Waren (Müritz)                     Commerzbank Waren          24151           13056037U000000000
150400682Commerzbank                                               17302Pasewalk                           Commerzbank Pasewalk       24151           13056038U000000000
150501001Müritz-Sparkasse                                          17181Waren (Müritz)                     Müritz-Sparkasse Waren     51514NOLADE21WRN20045257U000000000
150502001Sparkasse Neubrandenburg-Demmin                           17041Neubrandenburg, Meckl              Spk Neubrandenburg-Demmin  51515NOLADE21NBS20047492U000000000
150502002Sparkasse Neubrandenburg-Demmin                           17153Stavenhagen, Reuterstadt           Spk Neubrandenburg-Demmin  51515           20052195U000000000
150502002Sparkasse Neubrandenburg-Demmin                           17154Neukalen                           Spk Neubrandenburg-Demmin  51515           20052196U000000000
150502002Sparkasse Neubrandenburg-Demmin                           17139Gielow                             Spk Neubrandenburg-Demmin  51515           20052197U000000000
150502002Sparkasse Neubrandenburg-Demmin                           17159Dargun                             Spk Neubrandenburg-Demmin  51515           20052198U000000000
150502002Sparkasse Neubrandenburg-Demmin                           17139Malchin                            Spk Neubrandenburg-Demmin  51515           20052199U000000000
150502002Sparkasse Neubrandenburg-Demmin                           17121Loitz b Demmin                     Spk Neubrandenburg-Demmin  51515           20052200U000000000
150502002Sparkasse Neubrandenburg-Demmin                           17126Jarmen                             Spk Neubrandenburg-Demmin  51515           20052201U000000000
150502002Sparkasse Neubrandenburg-Demmin                           17109Demmin, Hansestadt                 Spk Neubrandenburg-Demmin  51515           20052202U000000000
150502002Sparkasse Neubrandenburg-Demmin                           17087Altentreptow                       Spk Neubrandenburg-Demmin  51515           20052203U000000000
150504001Sparkasse Uecker-Randow                                   17302Pasewalk                           Sparkasse Uecker-Randow    51598NOLADE21PSW20049128U000000000
150504002Sparkasse Uecker-Randow                                   17335Strasburg (Uckermark)              Spk Uecker-Randow Strasburg51598           20045261U000000000
150504002Sparkasse Uecker-Randow Gs                                17358Torgelow, Vorpommern               Spk Uecker-Randow Torgelow 51598           20046596U000000000
150504002Sparkasse Uecker-Randow Gs                                17367Eggesin                            Spk Uecker-Randow Eggesin  51598           20046597U000000000
150504002Sparkasse Uecker-Randow Gs                                17379Ferdinandshof, Vorpommern          Spk Uecker-Rand Ferdinandsh51598           20046598U000000000
150504002Sparkasse Uecker-Randow Gs                                17309Jatznick                           Spk Uecker-Randow Jatznick 51598           20049130U000000000
150504002Sparkasse Uecker-Randow Gs                                17321Löcknitz, Vorpommern               Spk Uecker-Randow Löcknitz 51598           20049131U000000000
150504002Sparkasse Uecker-Randow Gs                                17328Penkun                             Spk Uecker-Randow Penkun   51598           20049132U000000000
150504002Sparkasse Uecker-Randow Gs                                17373Ueckermünde                        Spk Uecker-Randow Ueckermde51598           20049133U000000000
150505001Sparkasse Vorpommern                                      17462Greifswald, Hansestadt             Spk Vorpommern             51597NOLADE21GRW20050482U000000000
150505002Sparkasse Vorpommern                                      18303Ribnitz-Damgarten                  Spk Vorpommern             51597           20045238U000000000
150505002Sparkasse Vorpommern                                      18507Grimmen                            Spk Vorpommern             51597           20045243U000000000
150505002Sparkasse Vorpommern                                      17431Wolgast                            Spk Vorpommern             51597           20045245U000000000
150505002Sparkasse Vorpommern                                      17382Anklam                             Spk Vorpommern             51597           20045259U000000000
150505002Sparkasse Vorpommern                                      17498Neuenkirchen b Greifswald          Spk Vorpommern             51597           20055018U000000000
150505002Sparkasse Vorpommern                                      17419Seebad Ahlbeck                     Spk Vorpommern             51597           20055019U000000000
150505002Sparkasse Vorpommern                                      17424Ostseebad Heringsdorf              Spk Vorpommern             51597           20055020U000000000
150505002Sparkasse Vorpommern                                      17429Seebad Bansin                      Spk Vorpommern             51597           20055021U000000000
150505002Sparkasse Vorpommern                                      17406Usedom                             Spk Vorpommern             51597           20055022U000000000
150505002Sparkasse Vorpommern                                      17459Ückeritz, Usedom                   Spk Vorpommern             51597           20055023U000000000
150505002Sparkasse Vorpommern                                      17459Koserow                            Spk Vorpommern             51597           20055024U000000000
150505002Sparkasse Vorpommern                                      17440Kröslin                            Spk Vorpommern             51597           20055025U000000000
150505002Sparkasse Vorpommern                                      17509Lubmin                             Spk Vorpommern             51597           20055026U000000000
150505002Sparkasse Vorpommern                                      17454Zinnowitz, Ostseebad               Spk Vorpommern             51597           20055027U000000000
150505002Sparkasse Vorpommern                                      17449Karlshagen                         Spk Vorpommern             51597           20055028U000000000
150505002Sparkasse Vorpommern                                      17398Ducherow                           Spk Vorpommern             51597           20055029U000000000
150505002Sparkasse Vorpommern                                      17506Gützkow b Greifswald               Spk Vorpommern             51597           20055030U000000000
150505002Sparkasse Vorpommern                                      17495Karlsburg b Greifswald             Spk Vorpommern             51597           20055031U000000000
150505002Sparkasse Vorpommern                                      17440Lassan, Vorpommern                 Spk Vorpommern             51597           20055032U000000000
150505002Sparkasse Vorpommern                                      18337Marlow b Ribnitz-Damgarten         Spk Vorpommern             51597           20055033U000000000
150505002Sparkasse Vorpommern                                      18334Bad Sülze                          Spk Vorpommern             51597           20055034U000000000
150505002Sparkasse Vorpommern                                      18347Ostseebad Wustrow                  Spk Vorpommern             51597           20055035U000000000
150505002Sparkasse Vorpommern                                      18347Dierhagen, Ostseebad               Spk Vorpommern             51597           20055036U000000000
150505002Sparkasse Vorpommern                                      18320Trinwillershagen                   Spk Vorpommern             51597           20055037U000000000
150505002Sparkasse Vorpommern                                      18356Barth                              Spk Vorpommern             51597           20055038U000000000
150505002Sparkasse Vorpommern                                      18374Zingst, Ostseebad                  Spk Vorpommern             51597           20055039U000000000
150505002Sparkasse Vorpommern                                      18375Ostseebad Prerow                   Spk Vorpommern             51597           20055040U000000000
150505002Sparkasse Vorpommern                                      18375Born a. Darß                       Spk Vorpommern             51597           20055041U000000000
150505002Sparkasse Vorpommern                                      18469Velgast                            Spk Vorpommern             51597           20055042U000000000
150505002Sparkasse Vorpommern                                      18519Sundhagen                          Spk Vorpommern             51597           20055043U000000000
150505002Sparkasse Vorpommern                                      18510Elmenhorst, Vorpommern             Spk Vorpommern             51597           20055044U000000000
150505002Sparkasse Vorpommern                                      18465Tribsees                           Spk Vorpommern             51597           20055045U000000000
150505002Sparkasse Vorpommern                                      18461Richtenberg                        Spk Vorpommern             51597           20055046U000000000
150505002Sparkasse Vorpommern                                      18461Franzburg                          Spk Vorpommern             51597           20055047U000000000
150505002Sparkasse Vorpommern                                      18439Stralsund                          Spk Vorpommern             51597           20055048U000000000
150505002Sparkasse Vorpommern                                      18442Niepars                            Spk Vorpommern             51597           20055062U000000000
150517321Sparkasse Mecklenburg-Strelitz                            17235Neustrelitz                        Spk Mecklenburg-Strelitz   51512NOLADE21MSTC0045268U000000000
150517322Sparkasse Mecklenburg-Strelitz Gs                         17255Wesenberg, Meckl                   Spk Meckl-Strelitz Wesenbg 51512           C0046605U000000000
150517322Sparkasse Mecklenburg-Strelitz Gs                         17252Mirow, Meckl                       Spk Meckl-Strelitz Mirow   51512           C0046607U000000000
150517322Sparkasse Mecklenburg-Strelitz Gs                         17258Feldberger Seenlandschaft          Spk Meckl-Strelitz Feldberg51512           C0046608U000000000
150517322Sparkasse Mecklenburg-Strelitz                            17098Friedland b Neubrandenburg         Spk Meckl-Strelitz Friedl  51512           C0048681U000000000
150517322Sparkasse Mecklenburg-Strelitz                            17094Burg Stargard                      Spk Meckl-Strelitz Burg Sta51512           C0048682U000000000
150517322Sparkasse Mecklenburg-Strelitz                            17348Woldegk                            Spk Meckl-Strelitz Woldegk 51512           C0048683U000000000
150616181Raiffeisenbank Mecklenburger Seenplatte                   17192Waren (Müritz)                     Raiffbk Mecklenb Seenplatte61261GENODEF1WRN32045935U000000000
150616182Raiffeisenbank Mecklenburger Seenplatte                   17207Röbel /Müritz                      Raiffbk Mecklenb Seenplatte61261           32045934U000000000
150616182Raiffeisenbank Mecklenburger Seenplatte                   17219Möllenhagen                        Raiffbk Mecklenb Seenplatte61261           32046640U000000000
150616182Raiffeisenbank Mecklenburger Seenplatte                   17213Malchow, Meckl                     Raiffbk Mecklenb Seenplatte61261           32046641U000000000
150616182Raiffeisenbank Mecklenburger Seenplatte                   17217Penzlin b Waren                    Raiffbk Mecklenb Seenplatte61261           32046642U000000000
150616182Raiffeisenbank Mecklenburger Seenplatte                   17237Blankensee b Neustrelitz           Raiffbk Mecklenb Seenplatte61261           32046659U000000000
150616182Raiffeisenbank Mecklenburger Seenplatte                   17252Mirow, Meckl                       Raiffbk Mecklenb Seenplatte61261           32046660U000000000
150616182Raiffeisenbank Mecklenburger Seenplatte                   17255Wesenberg, Meckl                   Raiffbk Mecklenb Seenplatte61261           32046661U000000000
150616182Raiffeisenbank Mecklenburger Seenplatte                   17213Fünfseen                           Raiffbk Mecklenb Seenplatte61261           32049325U000000000
150616182Raiffeisenbank Mecklenburger Seenplatte                   17033Neubrandenburg, Meckl              Raiffbk Mecklenb Seenplatte61261           32053249U000000000
150616182Raiffeisenbank Mecklenburger Seenplatte                   17235Neustrelitz                        Raiffbk Mecklenb Seenplatte61261           32053250U000000000
150616182Raiffeisenbank Mecklenburger Seenplatte                   17098Friedland b Neubrandenburg         Raiffbk Mecklenb Seenplatte61261           32053251U000000000
150616182Raiffeisenbank Mecklenburger Seenplatte (Gf P2)           17192Waren (Müritz)                     Raiffbk Mecklenb Seenplatte71261           32053677U000000000
150616381Volksbank Raiffeisenbank                                  17489Greifswald, Hansestadt             Volksbank Raiffeisenbank   61265GENODEF1ANK32050708U000000000
150616382Volksbank Raiffeisenbank                                  17373Ueckermünde                        Volksbank Raiffeisenbank   61265           32045936U000000000
150616382Volksbank Raiffeisenbank                                  17389Anklam                             Volksbank Raiffeisenbank   61265           32045937U000000000
150616382Volksbank Raiffeisenbank                                  17087Altentreptow                       Volksbank Raiffeisenbank   61265           32045945U000000000
150616382Volksbank Raiffeisenbank                                  17398Ducherow                           Volksbank Raiffeisenbank   61265           32046611U000000000
150616382Volksbank Raiffeisenbank                                  17358Torgelow, Vorpommern               Volksbank Raiffeisenbank   61265           32046630U000000000
150616382Volksbank Raiffeisenbank                                  17367Eggesin                            Volksbank Raiffeisenbank   61265           32046647U000000000
150616382Volksbank Raiffeisenbank (Gf P2)                          17462Greifswald, Hansestadt             Volksbank Raiffeisenbank   71265           32053678U000000000
150616382Volksbank Raiffeisenbank                                  17509Lubmin                             Volksbank Raiffeisenbank   61265           32055054U000000000
150616382Volksbank Raiffeisenbank                                  17506Gützkow b Greifswald               Volksbank Raiffeisenbank   61265           32055055U000000000
150616382Volksbank Raiffeisenbank                                  17091Rosenow b Altentreptow             Volksbank Raiffeisenbank   61265           32055056U000000000
150616382Volksbank Raiffeisenbank                                  17495Züssow                             Volksbank Raiffeisenbank   61265           32055305U000000000
150616981Raiffeisenbank Malchin                                    17131Malchin                            Raiffeisenbank Malchin     61247GENODEF1MAL32045943U000000000
150616982Raiffeisenbank Malchin                                    17161Teterow                            Raiffeisenbank Malchin     61247           32045942U000000000
150616982Raiffeisenbank Malchin                                    17159Dargun                             Raiffbk Malchin Dargun     61247           32046615U000000000
150616982Raiffeisenbank Malchin                                    17154Neukalen                           Raiffbk Malchin Neukalen   61247           32046616U000000000
150616982Raiffeisenbank Malchin                                    17139Gielow                             Raiffbk Malchin Gielow     61247           32046618U000000000
150616982Raiffeisenbank Malchin                                    17153Stavenhagen, Reuterstadt           Raiffbk Malchin Stavenhagen61247           32046619U000000000
150616982Raiffeisenbank Malchin (Gf P2)                            17131Malchin                            Raiffeisenbank Malchin     71247           32053680U000000000
150800001Commerzbank vormals Dresdner Bank                         17033Neubrandenburg, Meckl              Commerzbank Neubrandenbg   28150DRESDEFF15076046451U000000000
150800002Commerzbank vormals Dresdner Bank                         17463Greifswald, Hansestadt             Commerzbank Greifswald     28150           76046695U000000000
150800002Commerzbank vormals Dresdner Bank                         18439Stralsund                          Commerzbank Stralsund      28150           76046698U000000000
150800002Commerzbank vormals Dresdner Bank                         17181Waren (Müritz)                     Commerzbank Waren          28150           76047865U000000000
150800002Commerzbank vormals Dresdner Bank                         17302Pasewalk                           Commerzbank Pasewalk       28150           76047866U000000000
150916741Volksbank Demmin                                          17109Demmin, Hansestadt                 Volksbank Demmin           91048GENODEF1DM106044904U000000000
150916742Volksbank Demmin (Gf P2)                                  17109Demmin, Hansestadt                 Volksbank Demmin           81048           06053681U000000000
150917041VR-Bank Uckermark-Randow                                  17291Prenzlau                           VR-Bank Uckermark-Randow   91045GENODEF1PZ106044986U000000000
150917042VR-Bank Uckermark-Randow                                  17309Pasewalk                           VR-Bank Uckermark-Randow   91045           06044987U000000000
150917042VR-Bank Uckermark-Randow                                  17268Templin                            VR-Bank Uckermark-Randow   91045           06044988U000000000
150917042VR-Bank Uckermark-Randow                                  17279Lychen                             VR-Bank Uckermark-Randow   91045           06046653U000000000
150917042VR-Bank Uckermark-Randow                                  16278Angermünde                         VR-Bank Uckermark-Randow   91045           06050575U000000000
150917042VR-Bank Uckermark-Randow (Gf P2)                          17291Prenzlau                           VR-Bank Uckermark-Randow   81045           06053682U000000000
150917042VR-Bank Uckermark-Randow                                  17348Woldegk                            VR-Bank Uckermark-Randow   91045           06056526U000000000
150917042VR-Bank Uckermark-Randow                                  17335Strasburg (Uckermark)              VR-Bank Uckermark-Randow   91045           06056527U000000000
150917042VR-Bank Uckermark-Randow                                  17321Löcknitz, Vorpommern               VR-Bank Uckermark-Randow   91045           06056528U000000000
150917042VR-Bank Uckermark-Randow                                  16307Gartz (Oder)                       VR-Bank Uckermark-Randow   91045           06056529U000000000
150917042VR-Bank Uckermark-Randow                                  16306Casekow                            VR-Bank Uckermark-Randow   91045           06056530U000000000
150917042VR-Bank Uckermark-Randow                                  16303Schwedt /Oder                      VR-Bank Uckermark-Randow   91045           06056531U000000000
150917042VR-Bank Uckermark-Randow                                  16306Passow, Brandenburg                VR-Bank Uckermark-Randow   91045           06056532U000000000
150917042VR-Bank Uckermark-Randow                                  17291Gramzow, Uckermark                 VR-Bank Uckermark-Randow   91045           06056533U000000000
160101111SEB                                                       14467Potsdam                            SEB Potsdam                25927ESSEDE5F16013046480U000000000
160101112SEB                                                       03046Cottbus                            SEB Cottbus                25927ESSEDE5F16113050675U000000000
160103001Investitionsbank des Landes Brandenburg                   14480Potsdam                            Investitionsbk Potsdam          ILBXDE8XXXX09051394U000000000
160200861UniCredit Bank - HypoVereinsbank                          14467Potsdam                            UniCredit Bank-HypoVereinbk22102HYVEDEMM47099045914U000000000
160400001Commerzbank                                               14402Potsdam                            Commerzbank Potsdam        24160COBADEFFXXX13045968U000000000
160400002Commerzbank                                               14732Brandenburg an der Havel           Commerzbank Brandenburg    24160           13045974U000000000
160400002Commerzbank                                               15537Erkner                             Commerzbank Erkner         24160           13046559U000000000
160400002Commerzbank                                               16801Neuruppin                          Commerzbank Neuruppin      24160           13046560U000000000
160400002Commerzbank                                               19322Wittenberge, Prignitz              Commerzbank Wittenberge    24160           13046561U000000000
160400002Commerzbank                                               14974Ludwigsfelde                       Commerzbank Ludwigsfelde   24160           13047054U000000000
160400002Commerzbank                                               14943Luckenwalde                        Commerzbank Luckenwalde    24160           13047234U000000000
160400002Commerzbank                                               17235Neustrelitz                        Commerzbank Neustrelitz    24160           13047235U000000000
160400002Commerzbank                                               16515Oranienburg                        Commerzbank Oranienburg    24160           13047236U000000000
160400002Commerzbank                                               14513Teltow                             Commerzbank Teltow         24160           13048178U000000000
160400002Commerzbank                                               16761Hennigsdorf                        Commerzbank Hennigsdorf    24160           13048268U000000000
160400002Commerzbank                                               14612Falkensee                          Commerzbank Falkensee      24160           13048684U000000000
160400002Commerzbank                                               14701Rathenow                           Commerzbank Rathenow       24160           13049335U000000000
160400002Commerzbank                                               14801Bad Belzig                         Commerzbank Belzig         24160           13056039U000000000
160400002Commerzbank                                               16786Zehdenick                          Commerzbank Zehdenick      24160           13056040U000000000
160400002Commerzbank                                               14631Nauen, Havelland                   Commerzbank Nauen          24160           13056041U000000000
160400002Commerzbank                                               15344Strausberg                         Commerzbank Strausberg     24160           13056042U000000000
160400002Commerzbank                                               15711Königs Wusterhausen                Commerzbank Kön Wusterhsn  24160           13056043U000000000
160400002Commerzbank                                               16271Angermünde                         Commerzbank Angermünde     24160           13056114U000000000
160500001Mittelbrandenburgische Sparkasse in Potsdam               14459Potsdam                            Mittelbrandenbg Sparkasse  51699WELADED1PMB20047629U000000000
160501011Sparkasse Prignitz                                        16921Pritzwalk                          Sparkasse Prignitz         51698WELADED1PRP20048170U000000000
160501012Sparkasse Prignitz                                        19336Bad Wilsnack                       Spk Prignitz Bad Wilsnack  51698           20048327U000000000
160501012Sparkasse Prignitz                                        19339Plattenburg                        Spk Prignitz Glöwen        51698           20048330U000000000
160501012Sparkasse Prignitz                                        19357Karstädt, Prignitz                 Spk Prignitz Karstädt      51698           20048331U000000000
160501012Sparkasse Prignitz                                        16945Meyenburg, Prignitz                Spk Prignitz Meyenburg     51698           20048333U000000000
160501012Sparkasse Prignitz                                        19348Perleberg                          Spk Prignitz Perleberg     51698           20048334U000000000
160501012Sparkasse Prignitz                                        19322Wittenberge, Prignitz              Spk Prignitz Wittenberge   51698           20048336U000000000
160501012Sparkasse Prignitz                                        19309Lenzen (Elbe)                      Spk Prignitz Lenzen Elbe   51698           20048391U000000000
160501012Sparkasse Prignitz                                        16949Putlitz                            Spk Prignitz Putlitz       51698           20055074U000000000
